:060000000A128A110C280F
:10000800FE00030EF2000A08F3000A128A111528EE
:100018000A128A110F28F001F10183010A128A11CC
:100028004B280B1D1828192824280130F00703181D
:10003800F10A0030F1070B113B30831203138100E2
:10004800831203130C1C29282A2835280130F007AD
:100058000318F10A0030F1070C103D308F000A3008
:100068008E008C1C3828392844280130F0070318E2
:10007800F10A0030F1078C10FC308316031392004C
:1000880073088A00720E8300FE0E7E0E09008B171D
:100098000B17831603138C1483120313121592156E
:1000A8001216921612179214FC308316031392003C
:1000B8000710831203130710193070067104031D0B
:1000C800662867286028031083120313071C03148B
:1000D80003186F28732883120313071476288312D2
:1000E80003130710F001F10160280A128A110C2885
:02400E00BA3FB7
:00000001FF
