:060000000A128A110C280F
:10000800FE00030EF2000A08F3000A128A114228C1
:100018000A128A110F28F001F10183010A128A11CC
:1000280015288B170B178B160730831603138100BF
:100038003B308312031381008316031307108312C6
:1000480003130710193070067104031D2C282D287E
:100058002628031083120313071C031403183528DA
:1000680039288312031307143C288312031307103B
:10007800F001F10126280A128A110C280B1D4528C7
:10008800462851280130F0070318F10A0030F1071B
:100098000B113B3083120313810073088A00720E20
:0800A8008300FE0E7E0E09002C
:02400E00BA3FB7
:00000001FF
