:060000000A128A110E280D
:10000800FE00030EF3000A08F4007F08F5000A1248
:100018008A118D280A128A111128F001F101F201C2
:1000280083010A128A1118288B170B178B160730B1
:100038008316031381003B30831203138100831658
:1000480003130C1483120313101410169016901037
:100058003D308F000A308E00831603138C148312F0
:100068000313121592151216921612179214FC30D9
:1000780083160313920007108710071183120313C6
:1000880007108710071164307206031D4C284D288D
:100098005D28031083120313071C03140318552843
:1000A80059288312031307145C28831203130710BB
:1000B800F2010A307106031D6228632873280310B1
:1000C80083120313871C031403186B286F288312E9
:1000D800031387147228831203138710F101643005
:1000E8007006031D78287928472803108312031304
:1000F800071D031403188128852883120313071585
:100108008828831203130711F00147280A128A115D
:100118000E280B1D902891289A280130FF007F088F
:10012800F2070B113B308312031381008312031370
:100138000C1C9F28A028A9280130FF007F08F10780
:100148000C103D308F000A308E008C1CAC28AD2876
:10015800B6280130FF007F08F0078C10FC308316AA
:10016800031392007508FF0074088A00730E830059
:06017800FE0E7E0E0900E0
:02400E00BA3FB7
:00000001FF
