:060000000A128A110C280F
:10000800FE00030EF2000A08F3000A128A114628BD
:100018000A128A110F28F001F10183010A128A11CC
:1000280015288B170B17831603130C14831203134D
:1000380010141016901690103D308F000A308E0064
:100048008316031307108312031307100F3070066B
:100058007104031D302831282A2803108312031342
:10006800071C0314031839283D28831203130714A7
:100078004028831203130710F001F1012A280A12FD
:100088008A110C280B1D49284A2855280130F007E9
:100098000318F10A0030F1070B113B3083120313E8
:1000A8008100831203130C1C5A285B286628013030
:1000B800F0070318F10A0030F1070C103D308F00EB
:1000C8000A308E0073088A00720E8300FE0E7E0EC0
:0200D80009001D
:02400E00BA3FB7
:00000001FF
