:100000000A128A11F22F00308A000408840A82073B
:10001000003443344C344F3443344B343A3400349A
:0C00200044344134543445343A34003444
:10086A00F200831203130615061486107208880014
:10087A002130F1007630F000F00B412CF10B412CC5
:10088A0000008312031306110800F20083120313F7
:10089A00061506108610720888002130F10076309D
:1008AA00F000F00B562CF10B562C000083120313A8
:1008BA000611080038300A128A114A240A128A11CB
:1008CA0006300A128A114A240A128A110C300A12B4
:1008DA008A114A240A128A1101300A128A114A24F8
:1008EA000A128A110800F400F5018C2C75087407A5
:1008FA0084000A128A1103200A128A110A128A1122
:10090A0035240A128A110130FF007F08F50773089F
:10091A007502031C912C922C7B2C0800F40074089D
:10092A00F5007508F30004300310F30CFF3E031DB5
:10093A00992C73080F39F50075083038F5007508D9
:10094A000A128A1135240A128A117408F5007508E8
:10095A000F39F50075083038F50075080A128A1142
:10096A0035240A128A110800FD000A30F00000300E
:10097A00F1007D08F800F9017808F2007908F3001F
:10098A000A128A1144250A128A117008FA000A30DA
:10099A00F0000030F1007D08F800F9017808F20053
:1009AA007908F3000A128A11EB240A128A117008D4
:1009BA00FB007A08F80004300310F80DFF3E031D0F
:1009CA00E12C7B087807FC007C080800F501F31F7E
:1009DA00EF2CF02CF72CF209F309F20A0319F30AA7
:1009EA00F501F50AF11FFA2CFB2C002DF009F1098B
:1009FA00F00A0319F10A700871040319052D062D6E
:100A0A00352DF401F40A142D01300310F00DF10D07
:100A1A00FF3E031D0A2D0130FF007F08F407F11F76
:100A2A00172D182D092D71087302031D1E2D70082C
:100A3A007202031C212D222D282D7008F202710842
:100A4A00031CF303F30201300310F10CF00CFF3E18
:100A5A00031D292D0130F402031D342D352D182DC7
:100A6A0075080319392D3A2D3F2DF209F309F20AB7
:100A7A000319F30A7308F1007208F0000800F5017F
:100A8A00F11F482D492D502DF009F109F00A0319DB
:100A9A00F10AF501F50AF31F532D542D5D2DF209C4
:100AAA00F309F20A0319F30A0130FF007F08F50679
:100ABA00F601F701700871040319642D652D9C2D48
:100ACA00F401F40A732D01300310F00DF10DFF3E0D
:100ADA00031D692D0130FF007F08F407F11F762DF1
:100AEA00772D682D01300310F60DF70DFF3E031D1B
:100AFA00782D71087302031D842D70087202031C7D
:100B0A00872D882D8F2D7008F2027108031CF303BC
:100B1A00F302761401300310F10CF00CFF3E031DB2
:100B2A00902D0130F402031D9B2D9C2D772D750805
:100B3A000319A02DA12DA62DF609F709F60A031906
:100B4A00F70A7708F1007608F00008008312031309
:100B5A00A6008316031311141118B42DB52DB12D47
:100B6A00831203138C11D03093008C1DBD2DBE2D22
:100B7A00BA2D8C1183160313111FC42DC52DCB2D2D
:100B8A0011151119C92DCA2DC62D532E83120313FF
:100B9A0093018C1DD12DD22DCE2D8C1183160313CA
:100BAA00111FD82DD92DDF2D11151119DD2DDE2D8F
:100BBA00DA2D532E8312031326080A128A11B92436
:100BCA000A128A118312031393008C1DED2DEE2D48
:100BDA00EA2D8C1120080A128A11B9240A128A11E4
:100BEA008312031393008C1DFB2DFC2DF82D8C1101
:100BFA0021080A128A11B9240A128A1183120313CC
:100C0A0093008C1D092E0A2E062E8C1122080A1218
:100C1A008A11B9240A128A118312031393008C1DB4
:100C2A00172E182E142E8C1123080A128A11B92491
:100C3A000A128A118312031393008C1D252E262E65
:100C4A00222E8C1124080A128A11B9240A128A1136
:100C5A008312031393008C1D332E342E302E8C11E5
:100C6A0025080A128A11B9240A128A118312031357
:100C7A0093008C1D412E422E3E2E8C1193018C1D09
:100C8A00472E482E442E8C11831603131115111961
:100C9A004F2E502E4C2E831203138C110800FF3056
:100CAA00831603138700313093002830831203130D
:100CBA009400831603138801831203138801831691
:100CCA00031386018312031386010A128A115F2411
:100CDA000A128A1180300A128A114A240A128A11C7
:100CEA000630F30001300A128A1178240A128A1196
:100CFA00C0300A128A114A240A128A110530F300F6
:100D0A0008300A128A1178240A128A1183120313EC
:100D1A00A0010B30A1000230A2001230A300033060
:100D2A00A4001930A50000300A128A11AB250A1254
:100D3A008A11083083120313A9009D30A8000530D8
:100D4A00A700A70BA62EA80BA62EA90BA62E8230AB
:100D5A0083120313A800DD30A700A70BB22EA80B3D
:100D6A00B22EF001D0300A128A1115270A128A11FE
:100D7A0088300A128A114A240A128A11831203132A
:100D8A002F080A128A1193240A128A113A300A1277
:100D9A008A1135240A128A118312031330080A129F
:100DAA008A1193240A128A113A300A128A113524B6
:100DBA000A128A118312031331080A128A11932420
:100DCA000A128A11C8300A128A114A240A128A118E
:100DDA00831203132D080A128A1193240A128A1104
:100DEA002F300A128A1135240A128A118312031328
:100DFA002C080A128A1193240A128A112F300A1215
:100E0A008A1135240A128A11831203132B080A1233
:100E1A008A1193240A128A11AC2E0A128A11002806
:100E2A00F10083160313111411181C2F1D2F192FEB
:100E3A00831203138C11710893008C1D252F262F02
:100E4A00222F8C1183160313111F2C2F2D2F332FB2
:100E5A0011151119312F322F2E2FF12F70088312ED
:100E6A00031393008C1D3A2F3B2F372F8C118316B7
:100E7A000313111F412F422F482F11151119462F05
:100E8A00472F432FF12F911491184C2F4D2F492F93
:100E9A00831203138C117108013E93008C1D562F87
:100EAA00572F532F8C1183160313111F5D2F5E2F9B
:100EBA00642F11151119622F632F5F2FF12F9115CE
:100ECA00141C682F692F652F831203131308B100AE
:100EDA008316031391121116111A742F752F712F7D
:100EEA009115141C792F7A2F762F83120313130866
:100EFA00B0008316031391121116111A852F862F2B
:100F0A00822F9115141C8A2F8B2F872F831203137C
:100F1A001308AF008316031391121116111A962F94
:100F2A00972F932F9115141C9B2F9C2F982F831268
:100F3A0003131308AE008316031391121116111A24
:100F4A00A72FA82FA42F9115141CAC2FAD2FA92FB2
:100F5A00831203131308AD0083160313911211169B
:100F6A00111AB82FB92FB52F9115141CBD2FBE2FEA
:100F7A00BA2F831203131308AC00831603139112BA
:100F8A001116111AC92FCA2FC62F9115141CCE2F4C
:100F9A00CF2FCB2F831203131308AB00831603132F
:100FAA0091121116111ADA2FDB2FD72F9115141C53
:100FBA00DF2FE02FDC2F831203131308AA008316F6
:100FCA00031391161116111AEB2FEC2FE82F111596
:100FDA001119F02FF12FED2F080083120313AA0124
:100FEA00AB01AC01AD01AE01AF01B001B1018301AA
:060FFA000A128A11542EB8
:02400E00BA3FB7
:00000001FF
