:060000000A128A110E280D
:10000800FE00030EF0000408F1000A08F2000A12CC
:100018008A1141290A128A11112883132A30FD00F6
:100028000130FE007D30FF00203084000A128A1162
:100038006E210A128A11F701F80183010A128A1146
:10004800E92883120313AB01F41F2B282C2833282B
:10005800F309F409F30A0319F40AAB01AB0AF61F12
:10006800362837284028F509F609F50A0319F60A4B
:100078000130FF007F08AB06AC01AD0173087404C2
:100088000319472848287F28AA01AA0A56280130B8
:100098000310F30DF40DFF3E031D4C280130FF0043
:1000A8007F08AA07F41F59285A284B280130031043
:1000B800AC0DAD0DFF3E031D5B2874087602031DD1
:1000C800672873087502031C6A286B28722873084E
:1000D800F5027408031CF603F6022C140130031011
:1000E800F40CF30CFF3E031D73280130AA02031D14
:1000F8007E287F285A282B080319832884288928D2
:10010800AC09AD09AC0A0319AD0A2D08F4002C0896
:10011800F300080083120313AB01F61F94289528F7
:100128009C28F509F609F50A0319F60AAB01AB0A8A
:10013800F41F9F28A028A528F309F409F30A031936
:10014800F40A730874040319AA28AB28DA28AA0148
:10015800AA0AB92801300310F30DF40DFF3E031D60
:10016800AF280130FF007F08AA07F41FBC28BD286C
:10017800AE2874087602031DC32873087502031C91
:10018800C628C728CD287308F5027408031CF6038F
:10019800F60201300310F40CF30CFF3E031DCE28C9
:1001A8000130AA02031DD928DA28BD282B08031913
:1001B800DE28DF28E428F509F609F50A0319F60A06
:1001C8007608F4007508F30008008B170B178B16D8
:1001D80007308316031381003B3083120313810019
:1001E800831603138801071387130A30F3000030BE
:1001F800F400780883120313AE00AF012E08F5004F
:100208002F08F6000A128A1125200A128A1173088B
:10021800F9000A30F3000030F40078088312031361
:10022800AE00AF012E08F5002F08F6000A128A1159
:100238008E200A128A11730883120313B100013049
:10024800FF007F08F80764307802031C2C292D2949
:100258002E29F8010D3083120313B000AF30AF0020
:10026800B530AE00AE0B3629AF0B3629B00B3629A8
:100278003D29F9280A128A110E280B1D44294529FF
:1002880061297708031D49294A295529831203132F
:10029800071387173108203E84008313000888005D
:1002A8005F2983120313071787137908203E8400F8
:1002B800831300088800F7090B1172088A00710877
:1002C8008400700E8300FE0E7E0E09007E088A00F0
:1002D8007F0882000A128A116A210A128A11800094
:1002E800840A04087D0603190034FF0A0319FE0A6C
:1002F8006E293F3406345B344F3466346D347D34B4
:0603080007347F346F345E
:02400E00BA3FB7
:00000001FF
