:100000000A128A11FC2F00308A000408840A820731
:100010000034503449344334203431343634463497
:1000200038343734373441340034483445344C3470
:100030004C344F342034463452344F344D34003431
:100EE600F200720883120313880007108710071593
:100EF6002130F1007630F000F00B7F2FF10B7F2FC1
:100F060000008312031307110800F200720883120F
:100F1600031388000714871007152130F100763077
:100F2600F000F00B942FF10B942F000083120313A3
:100F36000711080038300A128A1173270A128A111B
:100F460006300A128A1173270A128A110C300A1205
:100F56008A1173270A128A1101300A128A1173271D
:100F66000A128A110800F400F501CA2F75087407E1
:100F760084000A128A1103200A128A110A128A119F
:100F860088270A128A110130FF007F08F5077308C7
:100F96007502031CCF2FD02FB92F08008316031319
:100FA60007108710071188010A128A119D270A1255
:100FB6008A1183300A128A1173270A128A110A309B
:100FC600F3000D300A128A11B6270A128A11C230AE
:100FD6000A128A1173270A128A110B30F3000130A4
:100FE6000A128A11B6270A128A11DC2F0A128A11EE
:0A0FF600002883010A128A11D12F8E
:02400E00BA3FB7
:00000001FF
