:100000000A128A11FC2F00308A000408840A820731
:100010000034433448344F3441344934423420347A
:1000200045344C344D34413444344934003448343C
:1000300049342C3420344934543427345334203454
:060040004D34453400348C
:100E6400F400F501462F7508740784000A128A11EC
:100E740003200A128A110A128A11CB270A128A1134
:100E84000130FF007F08F50773087502031C4B2F20
:100E94004C2F352F080002300A128A119A270A12A1
:100EA4008A1128300A128A119A270A128A110630E6
:100EB4000A128A119A270A128A110C300A128A110C
:100EC4009A270A128A1101300A128A119A270A12E1
:100ED4008A110800831603130710871007110812DC
:100EE4008812081388130A128A114D270A128A11CC
:100EF40082300A128A119A270A128A110B30F300DF
:100F04000F300A128A1132270A128A11C1300A12CA
:100F14008A119A270A128A110D30F30001300A123D
:100F24008A1132270A128A117A2F0A128A1100288A
:100F3400F200831203130715071087107208F039A3
:100F440088000D30F100FB30F000F00BA72FF10BFF
:100F5400A72FAC2F8312031307117208F00003307C
:100F64000310F00DFF3E031DB22F0310700DF03976
:100F740088000715071087100D30F100FB30F000D2
:100F8400F00BC22FF10BC22FC72F831203130711CB
:100F94000800F20083120313071507148710720860
:100FA400F03988000D30F100FB30F000F00BD82F41
:100FB400F10BD82FDD2F8312031307117208F000F1
:100FC40003300310F00DFF3E031DE32F0310700DDB
:100FD400F03988000715071487100D30F100FB3035
:100FE400F000F00BF32FF10BF32FF82F8312031300
:0C0FF4000711080083010A128A116C2FFB
:02400E00BA3FB7
:00000001FF
