:060000000A128A11EE2F26
:100F40003F3406345B344F3466346D347D340734BB
:100F50007F346F347E088A007F0882000A128A116B
:100F6000AA270A128A118000840A04087D06031940
:100F70000034FF0A0319FE0AAE2F831603138601FD
:100F8000F301F4017308203E8400831300088312E8
:100F9000031386000D30F200AF30F100B630F000E0
:100FA000F00BD02FF10BD02FF20BD02F000001301F
:100FB000F3070318F40A0030F4077408803AFF00BE
:100FC00080307F02031DE62F0A307302031CE92FD5
:100FD000EA2FC22FC02F0A128A11002883132A3049
:100FE000FD000730FE00A030FF00203084000A1210
:100FF0008A11AE270A128A1183010A128A11BD2FA3
:02400E00FA3F77
:00000001FF
