:060000000A128A11BE2F56
:100EF6003F3406345B344F3466346D347D34073406
:100F06007F346F347E088A007F0882000A128A11B5
:100F160085270A128A118000840A04087D060319AF
:100F26000034FF0A0319FE0A892F8316031387016B
:100F36008601831203130710871474088600413054
:100F4600FD00EE30FC00FC0BA62FFD0BA62F0000CB
:100F56008312031307148710720886004130FD00C0
:100F6600EE30FC00FC0BB52FFD0BB52F00009C2FBF
:100F76000A128A1100280A128A117B270A128A117C
:100F8600F0000A128A117C270A128A11F1000A124D
:100F96008A117D270A128A11F2000A128A117E2707
:100FA6000A128A11F3000A128A117F270A128A117D
:100FB600F4000A128A1180270A128A11F5000A1211
:100FC6008A1181270A128A11F6000A128A118227CB
:100FD6000A128A11F7000A128A1183270A128A1145
:100FE600F8000A128A1184270A128A11F900FA01F6
:0A0FF600FB0183010A128A11982FF3
:02400E00BA3FB7
:00000001FF
