:060000000A128A11E22F32
:100F1A00383400343F3406345B344F3466346D342D
:100F2A007D3407347F346F347E088A007F0882005C
:100F3A000A128A1199270A128A118000840A04085F
:100F4A007D0603190034FF0A0319FE0A9D2F831632
:100F5A000313870186010630F2000030F3000530E2
:100F6A00F0000030F100831203130710871472088F
:100F7A00203E84008313000886004130F700EE30DB
:100F8A00F600F60BC62FF70BC62F000083120313C9
:100F9A00071487107008203E840083130008860017
:100FAA004130F700EE30F600F60BD92FF70BD92FA8
:100FBA000000B82F0A128A11002883132A30FD0074
:100FCA000730FE008F30FF00203084000A128A1199
:100FDA009D270A128A110A128A118D270A128A116A
:100FEA00F4000A128A118E270A128A11F500830167
:060FFA000A128A11AC2F5F
:02400E00BA3FB7
:00000001FF
