:060000000A128A1110280B
:10000800FE00030E83120313BA000A08BB007F0820
:10001800BC000A128A11972C0A128A1113280A1294
:100028008A11F7270A128A11CF000A128A11F827B3
:100038000A128A11D0000A128A11F9270A128A11A3
:10004800D1000A128A11FA270A128A11D200C001B5
:10005800C101C201C301C401C501C601C701C8016C
:10006800C901CA01CB01CC01CD01CE0183010A121D
:100078008A11832B8312031323088039AD002308C8
:10008800A8002807B300A21F4A284B284C2833147D
:1000980033080319502851286028330A031D5528AE
:1000A80056285E280030A3000030A2000030A100CE
:1000B8000030A000A21768280030A3000030A2007A
:1000C8000030A1000030A00027088039FF007F0819
:1000D800AD062708A8002807B200A61F74287528AF
:1000E80076283214320803197A287B288A28320A9B
:1000F800031D7F28802888280030A7000030A6002C
:100108000030A5000030A400A61792280030A700F0
:100118000030A6000030A5000030A4003208031902
:10012800962897289C283308031D9B289C28A528D7
:100138000030A3000030A2000030A1000030A00071
:10014800822B2008F00026080A128A15D9270A12DD
:100158008A11710883120313B9007008B8003808AF
:10016800A800A901AA01AB012B08B1002A08B00018
:100178002908AF002808AE003908A800A901AA017B
:10018800AB012B08B7002A08B6002908B5002808D3
:10019800B4002108F00025080A128A15D9270A1286
:1001A8008A11710883120313B9007008B80038085F
:1001B800A800A901AA01AB012808AE072908031164
:1001C8000318013E0319E928AF072A080311031889
:1001D800013E0319F028B0072B0803110318013E4C
:1001E8000319F728B1073908A800A901AA01AB012A
:1001F8002808B407290803110318013E0319052923
:10020800B5072A0803110318013E03190C29B6077C
:100218002B0803110318013E03191329B7072208F5
:10022800F00024080A128A15D9270A128A117108BF
:1002380083120313B9007008B8003808A800A90190
:10024800AA01AB012808AE07290803110318013ECB
:1002580003192F29AF072A0803110318013E0319B0
:100268003629B0072B0803110318013E03193D294D
:10027800B1073908A800A901AA01AB012808B407E9
:10028800290803110318013E03194B29B5072A0849
:1002980003110318013E03195229B6072B0803114D
:1002A8000318013E03195929B7070830A80003109D
:1002B800AE0DAF0DB00DB10DA80B5B292108F000F4
:1002C80024080A128A15D9270A128A11710883127A
:1002D8000313B9007008B8003808A8003908A90045
:1002E800AA01AB012808AE07290803110318013E2B
:1002F80003197F29AF072A0803110318013E0319C0
:100308008629B0072B0803110318013E03198D290C
:10031800B1072008F00025080A128A15D9270A1201
:100328008A11710883120313B9007008B8003808DD
:10033800A8003908A900AA01AB012808AE072908B6
:1003480003110318013E0319AA29AF072A0803114C
:100358000318013E0319B129B0072B08031103182C
:10036800013E0319B829B1070830A8000310AE0DE3
:10037800AF0DB00DB10DA80BBA292008F000240864
:100388000A128A15D9270A128A11710883120313CF
:10039800B9007008B8003808A8003908A900AA01EF
:1003A800AB012808AE07290803110318013E0319F9
:1003B800DE29AF072A0803110318013E0319E529AE
:1003C800B0072B0803110318013E0319EC29B107E4
:1003D8002108F00026080A128A15D9270A128A115C
:1003E800710883120313B9007008B8003808A80010
:1003F8003908A900AA01AB012808B4072908031184
:100408000318013E0319092AB5072A08031103181E
:10041800013E0319102AB6072B0803110318013EE1
:100428000319172AB7072208F00025080A128A15A7
:10043800D9270A128A11710883120313B9007008A8
:10044800B8003808A8003908A900AA01AB01280893
:10045800B407290803110318013E0319342AB50704
:100468002A0803110318013E03193B2AB6072B0873
:1004780003110318013E0319422AB7072208F000A6
:1004880026080A128A15D9270A128A1171088312B6
:100498000313B9007008B8003808A8003908A90083
:1004A800AA01AB0108300310A80DA90DAA0DAB0DC8
:1004B800FF3E031D572A2808B4072908031103180B
:1004C800013E0319682AB5072A0803110318013EDB
:1004D80003196F2AB6072B0803110318013E0319E5
:1004E800762AB7072E08A8002F08A9003008AA0006
:1004F8003108AB0018300310AB0CAA0CA90CA80CDF
:10050800FF3E031D7F2A2808B40729080311031892
:10051800013E0319902AB5072A0803110318013E62
:100528000319972AB6072B0803110318013E03196C
:100538009E2AB7070830A8000310AE0DAF0DB00D06
:10054800B10DA80BA02A33083207A800A901A90DEC
:100558002808823EB80029080318013EFF3EB9006A
:10056800D22A0130A8000310B40DB50DB60DB70D91
:10057800A80BB72AB11FC12AC22AC32A34140130D2
:10058800A8000310AE0DAF0DB00DB10DA80BC52A14
:10059800FF30B8070318B90AFF30B907B61FD52AC4
:1005A800D62AB52AB201B11FDA2ADB2AF72AFF3088
:1005B8002E05A800FF302F05A900FF303005AA003E
:1005C8007F303105AB002B082A04290428040319BD
:1005D800EE2AEF2AF22AB201B20AF72A341CF52AC7
:1005E800F62AF72AEF2A32080319FB2AFC2A2D2BB0
:1005F8000130B407003003180130B5070030031884
:100608000130B607003003180130B707371C0D2B2F
:100618000E2B2D2B3408A8003508A9003608AA008F
:100628003708AB000130AC002B0DAB0CAA0CA90CA1
:10063800A80CAC0B182B2B08B7002A08B600290801
:10064800B5002808B4000130B8070318B90A00300B
:10065800B9073908803AFF0080307F02031D362B26
:10066800FF303802031C392B3A2B452B7F3083127D
:100678000313B7008030B6000030B5000030B40076
:10068800762B831203133908803AFF0080307F02EB
:10069800031D502B013038020318532B542B602BA9
:1006A800003083120313B7000030B6000030B500E5
:1006B8000030B400AD01762B831203133808B30061
:1006C800FF30B405FF30B5057F30B6050030B705FB
:1006D800331C6F2B702B712BB6173308A80003102F
:1006E800280CB7002D08FF007F08B7043708A300BF
:1006F8003608A2003508A1003408A00008004030E0
:10070800831603138100D0308B00C130831203138A
:100718009F008E30831603139F000C1786148801E0
:100728008712071387130A128A159D270A128A113E
:100738000A128A11EE270A128A11831203131F154F
:100748001F19A72BA82BA42B861CAB2BAC2B132C67
:10075800023083160313AA004530A900A930A80067
:10076800A80BB42BA90BB42BAA0BB42B831203131D
:10077800861CBF2BC02B132C01300A128A15712737
:100788000A128A11831203134C0883160313A80054
:100798002807403E840083130008A900840A000843
:1007A800AA002908013EAB002A080318013E003EB2
:1007B800AC00831203134C0883160313AD002D07F6
:1007C800403E84002B088000840A2C088000831295
:1007D80003134C0883160313A8002807403E84001F
:1007E8000008A900840A0008AA002A08803AFF0025
:1007F80080307F02031D022C65302902031C052C62
:10080800062C132C831203134C0883160313A80019
:100818002807403E840083138001840A80018030C9
:100828000A128A1571270A128A110A300A128A15C1
:10083800B6270A128A11831203134C084F3E84000C
:10084800831300080A128A15B6270A128A11C030C3
:100858000A128A1571270A128A1101300A128A159A
:10086800B6270A128A110A3083160313A000003033
:10087800A100831203134C0883160313A80028074A
:10088800403E840083130008A200840A0008A300E5
:100898000A128A1156270A128A118316031321088D
:1008A800AF002008AE000A30A0000030A10083127B
:1008B80003134C0883160313A8002807403E84003E
:1008C80083130008A200840A0008A3000A128A11F0
:1008D800E6260A128A11831603132108B10020089C
:1008E800B0002E08303E0A128A1587270A128A118C
:1008F800831603133008303E0A128A1587270A1216
:100908008A11023083160313AA004530A900A930C2
:10091800A800A80B8D2CA90B8D2CAA0B8D2CA12B14
:100928000A128A1110280C1F9A2C9B2C832D1E0842
:10093800CE00831603131E0883120313CD003B3029
:10094800A300A030A2002830A1000A30A0004D0862
:10095800F0004E08F100F201F30100300A128A118A
:100968008C250A128A11730883120313A7007208D0
:10097800A6007108A5007008A4000A128A113E207A
:100988000A128A11831203132308CB002208CA0013
:100998002108C9002008C8004B08F3004A08F200E3
:1009A8004908F1004808F0000030F7000030F60070
:1009B8000030F5000030F4000A128A1144260A12A9
:1009C8008A11031CE82CE92C082D3F30F300A030D5
:1009D800F2000030F1000030F000831203134B08DE
:1009E800F7004A08F6004908F5004808F4000A121A
:1009F8008A1144260A128A11031C032D042D082D7E
:100A080083120313CC01822D3F30F300A030F20093
:100A18000030F1000030F000831203134B08F70098
:100A28004A08F6004908F5004808F4000A128A1135
:100A380044260A128A110318222D232D432D4030F3
:100A4800F3002030F2000030F1000030F000831293
:100A580003134B08F7004A08F6004908F500480850
:100A6800F4000A128A1144260A128A11031C3D2D29
:100A78003E2D432D83120313CC01CC0A822D403026
:100A8800F3002030F2000030F1000030F000831253
:100A980003134B08F7004A08F6004908F500480810
:100AA800F4000A128A1144260A128A1103185D2DCD
:100AB8005E2D7E2D4030F3007030F2000030F100E2
:100AC8000030F000831203134B08F7004A08F600C1
:100AD8004908F5004808F4000A128A1144260A1247
:100AE8008A11031C782D792D7E2D02308312031371
:100AF800CC00822D033083120313CC000C133C0866
:100B0800FF003B088A003A0E8300FE0E7E0E0900A5
:100B1800F80078080319912D922DA62DF31F952D15
:100B2800962DA62D7009FA007109FB007209FC00C8
:100B38007309FD00FA0A0319FB0A0319FC0A0319D1
:100B4800FD0AAE2D7308FD007208FC007108FB0059
:100B58007008FA007308720471047004031DB52D3F
:100B6800B62DBF2D0030F3000030F2000030F10048
:100B78000030F000432E9630F900CF2D0130FF00F1
:100B88007F08F90701300310FD0CFC0CFB0CFA0C74
:100B9800FF3E031DC72DFE307D05031DD42DD52D29
:100BA800C22DF12D0130FF007F08F9070130FA0747
:100BB800003003180130FB07003003180130FC0730
:100BC800003003180130FD0701300310FD0CFC0C48
:100BD800FB0CFA0CFF3E031DE92DFF307D05031DBC
:100BE800F62DF72DD62D032E0130F9020130F40031
:100BF8000310FA0DFB0DFC0DFD0DF40BFC2DFC1B79
:100C0800062E072E0D2E0230790203180C2E0D2EFB
:100C1800F82D7918102E112E192EFF30FA05FF30F5
:100C2800FB057F30FC05FF30FD050310F90C790842
:100C3800F400F501F601F70118300310F40DF50D75
:100C4800F60DF70DFF3E031D212E7408FA047508F2
:100C5800FB047608FC047708FD0478080319352E90
:100C6800362E3B2EF31F392E3A2E3B2EFD177D08CC
:100C7800F3007C08F2007B08F1007A08F000080015
:100C880000307005F80000307105F90080307205F9
:100C9800FA007F307305FB007B087A047904780436
:100CA800031D572E582E602E0030F3000030F2003E
:100CB8000030F1000030F00000307405F80000301A
:100CC8007505F90080307605FA007F307705FB005E
:100CD8007B087A0479047804031D732E742E7C2E05
:100CE8000030F7000030F6000030F5000030F40066
:100CF800F31F7F2E802EA42E0030F8000030F9005C
:100D08000030FA008030FB007008F8027108031CFC
:100D1800710F8F2E902EF9027208031C720F952EF8
:100D2800962EFA027308031C730F9B2E9C2EFB024F
:100D38007B08F3007A08F2007908F1007808F000DF
:100D4800F71FA72EA82ECC2E0030F8000030F9008F
:100D58000030FA008030FB007408F8027508031CA4
:100D6800750FB72EB82EF9027608031C760FBD2E24
:100D7800BE2EFA027708031C770FC32EC42EFB027F
:100D88007B08F7007A08F6007908F5007808F4007F
:100D98008030F3068030F70677087302031DDE2ED5
:100DA80076087202031DDE2E75087102031DDE2E01
:100DB800740870020318E12EE22EE42E0310E52ECB
:100DC8000314080083120313BE0183160313A31F21
:100DD800EE2EEF2EF82EA209A309A20A0319A30AE0
:100DE80083120313BE01BE0A83160313A11FFD2E2F
:100DF800FE2E032FA009A109A00A0319A10A2008A1
:100E080021040319082F092F422F83120313BD0150
:100E1800BD0A1B2F01300310A00DA10DFF3E031DBD
:100E28000F2F0130FF007F0883120313BD078316BD
:100E38000313A11F202F212F0E2F83160313210820
:100E48002302031D292F20082202031C2C2F2D2FDB
:100E5800332F2008A2022108031CA303A302013098
:100E68000310A10CA00CFF3E031D342F0130831288
:100E78000313BD02031D412F422F212F83123E0869
:100E88000319472F482F4F2F83160313A209A309CD
:100E9800A20A0319A30A831603132308A100220830
:100EA800A000080083160313A501A11F5C2F5D2F66
:100EB800642FA009A109A00A0319A10AA501A50A7E
:100EC800A31F672F682F712FA209A309A20A03196C
:100ED800A30A0130FF007F08A506A601A701200884
:100EE80021040319782F792FB02FA401A40A872F82
:100EF80001300310A00DA10DFF3E031D7D2F013011
:100F0800FF007F08A407A11F8A2F8B2F7C2F013099
:100F18000310A60DA70DFF3E031D8C2F21082302E9
:100F2800031D982F20082202031C9B2F9C2FA32F00
:100F38002008A2022108031CA303A30226140130DF
:100F48000310A10CA00CFF3E031DA42F0130A40226
:100F5800031DAF2FB02F8B2F25080319B42FB52FE2
:100F6800BA2FA609A709A60A0319A70A2708A100E4
:100F78002608A000080007308A000408840A8207AF
:100F880000344E3475346D346234653472343A3416
:100F98002034003443346F346C346F3472343A3450
:100FA8002034003452346F347334653420340034C0
:100FB80042346C3475346534203400345734683422
:100FC800693474346534003442346C3461346334C5
:100FD8006B3400348130831203139F008E308316E4
:0E0FE80003139F0008001E3412341834243402
:101EE20083120313BF008712071387173F08880066
:101EF2000D3083120313BE00FB30BD00BD0B7F2FDC
:101F0200BE0B7F2F83120313871308008312031360
:101F1200BF008716071387173F0888000D3083120A
:101F22000313BE00FB30BD00BD0B952FBE0B952FDA
:101F3200831203138713080038300A128A15712797
:101F42000A128A1506300A128A1571270A128A1590
:101F52000C300A128A1571270A128A1501300A12E8
:101F62008A1571270A128A15080083160313A00026
:101F7200CC2F200884000A128A11BF270A128A1560
:101F82000A128A1587270A128A150130FF007F0874
:101F920083160313A007200884000A128A11BF27A0
:101FA2000A128A15003A031DD72FD82FBA2F08001C
:101FB200F800F401F5017008F200F3017208F6006E
:101FC2007308F700781CE62FE72FED2F7608F40749
:101FD2000318F50A7708F50701300310F60DF70D1F
:101FE200FF3E031DEE2F0310F80C7808031DFA2F95
:0E1FF200FB2FE32F7508F1007408F0000800C3
:02400E00BA3FB7
:00000001FF
