:060000000A128A11FC2F18
:100F0000831603138712071387138612061386139B
:100F1000831203138713071387128612061386138F
:100F2000871786160330F2008A30F1005530F00042
:100F3000F00B982FF10B982FF20B982F9F2F831205
:100F40000313861286170B30F2002630F1005D3055
:100F5000F000F00BA92FF10BA92FF20BA92FB02F46
:100F600083120313861306170330F2008A30F10050
:100F70005530F000F00BBA2FF10BBA2FF20BBA2F4D
:100F8000C12F8312031306130330F2008A30F100DD
:100F90005530F000F00BCA2FF10BCA2FF20BCA2FFD
:100FA000D12F831203138713861687160B30F20096
:100FB0002630F1005D30F000F00BDC2FF10BDC2F60
:100FC000F20BDC2FE32F8312031387120717033072
:100FD000F2008A30F1005530F000F00BED2FF10BEC
:100FE000ED2FF20BED2FF42F83120313071386124C
:100FF000902F0A128A11002883010A128A11802F69
:02400E00BA3FB7
:00000001FF
