:060000000A128A11FC2F18
:100F06007108F3007008F2000310F30CF20C0310E2
:100F1600F30CF20C72088312031395001708CF39ED
:100F260097007008F20003300310F20DFF3E031D18
:100F3600972F0310720D30391704970008000430FC
:100F46008312031392000C309700FF3083160313AD
:100F56009200F701F8017808F1007708F0000A120C
:100F66008A1183270A128A110D30F500FB30F4002E
:100F7600F40BBB2FF50BBB2FC02F0130F70703185F
:100F8600F80A0030F80704307802003003197702B7
:100F9600031CCE2FCF2FAE2F0D30F600AF30F5004D
:100FA600B630F400F40BD52FF50BD52FF60BD52F55
:100FB6000000FF30F7000330F8007808F1007708EA
:100FC600F0000A128A1183270A128A110D30F500E1
:100FD600FB30F400F40BED2FF50BED2FF22F013063
:100FE600F7020030031CF803F802E02F0A128A11F8
:0A0FF600002883010A128A11A22FBD
:02400E00BA3FB7
:00000001FF
