:100000000A128A11FB2F00308A000408840A820732
:10001000003445344534503452344F344D34203458
:0C00200044344134543441343A34003448
:100D7000F0007008831203178D00831603178C137D
:100D80000C14831203170C08F7000800F2008312FA
:100D90000313071087100715720888000D30F10043
:100DA000FB30F000F00BD22EF10BD22ED72E831297
:100DB000031307110800F2008312031307148710AE
:100DC0000715720888000D30F100FB30F000F00BC1
:100DD000E72EF10BE72EEC2E831203130711080008
:100DE000F1007008831203178D0071088C008316C0
:100DF00003178C130C1555308D00AA308D008C1400
:100E0000831203130D1E052F062F002F0D1208004D
:100E100038300A128A11C6260A128A1106300A12BE
:100E20008A11C6260A128A110C300A128A11C626A5
:100E30000A128A1101300A128A11C6260A128A1170
:100E40000800F300332F730884000A128A1103206C
:100E50000A128A110A128A11DB260A128A1101303B
:100E6000FF007F08F307730884000A128A11032029
:100E70000A128A11003A031D3E2F3F2F232F08002C
:100E80008316031307108710071188010A128A11AD
:100E900008270A128A1182300A128A11C6260A12FB
:100EA0008A1101300A128A1121270A128A110A3086
:100EB000F00002300A128A11F0260A128A110A3052
:100EC0000A128A11B8260A128A11C8300A128A1127
:100ED000C6260A128A117708303E0A128A11DB26CA
:100EE0000A128A110730F6005830F5005930F40024
:100EF000F40B782FF50B782FF60B782F7F2F0A3015
:100F0000F00004300A128A11F0260A128A110A30FF
:100F10000A128A11B8260A128A11C8300A128A11D6
:100F2000C6260A128A117708303E0A128A11DB2679
:100F30000A128A110730F6005830F5005930F400D3
:100F4000F40BA02FF50BA02FF60BA02FA72F0A3024
:100F5000F00006300A128A11F0260A128A110A30AD
:100F60000A128A11B8260A128A11C8300A128A1186
:100F7000C6260A128A117708303E0A128A11DB2629
:100F80000A128A110730F6005830F5005930F40083
:100F9000F40BC82FF50BC82FF60BC82FCF2F0A3034
:100FA000F00008300A128A11F0260A128A110A305B
:100FB0000A128A11B8260A128A11C8300A128A1136
:100FC000C6260A128A117708303E0A128A11DB26D9
:100FD0000A128A110730F6005830F5005930F40033
:100FE000F40BF02FF50BF02FF60BF02FF72F572FF8
:100FF0000A128A110028F70183010A128A11402F70
:02400E00BA3FB7
:00000001FF
