:060000000A128A110C280F
:10000800FE00030EF0000A08F1000A128A158F2E6E
:100018000A128A110F28FA01FB0183134030840069
:1000280054300A128A155D260A128A1183010A12AF
:100038008A11322D8312031328088039B200280848
:10004800AD002D07B800A71F2A282B282C28381404
:1000580038080319302831284028380A031D352864
:1000680036283E280030A8000030A7000030A6003F
:100078000030A500A71748280030A8000030A700C6
:100088000030A6000030A5002C088039FF007F084A
:10009800B2062C08AD002D07B300AB1F5428552815
:1000A80056283314330803195A285B286A28330A58
:1000B800031D5F28602868280030AC000030AB00C2
:1000C8000030AA000030A900AB1772280030AC003D
:1000D8000030AB000030AA000030A9003308031933
:1000E800762877287C283808031D7B287C288528D3
:1000F8000030A8000030A7000030A6000030A5009E
:10010800622B2508F2002B080A128A15D9260A1232
:100118008A11730883120313BE007208BD003D08DC
:10012800AD00AE01AF01B0013008B7002F08B6002E
:100138002E08B5002D08B4003E08AD00AE01AF0191
:10014800B0013008BC002F08BB002E08BA002D08EB
:10015800B9002608F2002A080A128A15D9260A12B6
:100168008A11730883120313BE007208BD003D088C
:10017800AD00AE01AF01B0012D08B4072E08031180
:100188000318013E0319C928B5072F0803110318DE
:10019800013E0319D028B607300803110318013EA1
:1001A8000319D728B7073E08AD00AE01AF01B0016B
:1001B8002D08B9072E0803110318013E0319E52875
:1001C800BA072F0803110318013E0319EC28BB07CF
:1001D800300803110318013E0319F328BC07270848
:1001E800F20029080A128A15D9260A128A117308F8
:1001F80083120313BE007208BD003D08AD00AE01B6
:10020800AF01B0012D08B4072E0803110318013EF1
:1002180003190F29B5072F0803110318013E031905
:100228001629B607300803110318013E03191D29C2
:10023800B7073E08AD00AE01AF01B0012D08B90700
:100248002E0803110318013E03192B29BA072F089A
:1002580003110318013E03193229BB0730080311A3
:100268000318013E03193929BC070830AD000310F3
:10027800B40DB50DB60DB70DAD0B3B292608F20030
:1002880029080A128A15D9260A128A1173088312B4
:100298000313BE007208BD003D08AD003E08AE0065
:1002A800AF01B0012D08B4072E0803110318013E51
:1002B80003195F29B5072F0803110318013E031915
:1002C8006629B607300803110318013E03196D2982
:1002D800B7072508F2002A080A128A15D9260A1231
:1002E8008A11730883120313BE007208BD003D080B
:1002F800AD003E08AE00AF01B0012D08B4072E08CE
:1003080003110318013E03198A29B5072F080311A1
:100318000318013E03199129B60730080311031881
:10032800013E03199829B7070830AD000310B40D32
:10033800B50DB60DB70DAD0B9A292508F2002908A1
:100348000A128A15D9260A128A117308831203130E
:10035800BE007208BD003D08AD003E08AE00AF010A
:10036800B0012D08B4072E0803110318013E031924
:10037800BE29B5072F0803110318013E0319C52923
:10038800B607300803110318013E0319CC29B70733
:100398002608F2002B080A128A15D9260A128A1191
:1003A800730883120313BE007208BD003D08AD0038
:1003B8003E08AE00AF01B0012D08B9072E080311A1
:1003C8000318013E0319E929BA072F080311031876
:1003D800013E0319F029BB07300803110318013E39
:1003E8000319F729BC072708F2002A080A128A15F8
:1003F800D9260A128A11730883120313BE007208E1
:10040800BD003D08AD003E08AE00AF01B0012D08AB
:10041800B9072E0803110318013E0319142ABA0755
:100428002F0803110318013E03191B2ABB073008C4
:1004380003110318013E0319222ABC072708F200FA
:100448002B080A128A15D9260A128A1173088312F0
:100458000313BE007208BD003D08AD003E08AE00A3
:10046800AF01B00108300310AD0DAE0DAF0DB00DEA
:10047800FF3E031D372A2D08B9072E08031103185C
:10048800013E0319482ABA072F0803110318013E31
:1004980003194F2ABB07300803110318013E03193B
:1004A800562ABC073408AD003508AE003608AF0040
:1004B8003708B00018300310B00CAF0CAE0CAD0C00
:1004C800FF3E031D5F2A2D08B9072E0803110318E4
:1004D800013E0319702ABA072F0803110318013EB9
:1004E8000319772ABB07300803110318013E0319C3
:1004F8007E2ABC070830AD000310B40DB50DB60D4B
:10050800B70DAD0B802A38083307AD00AE01AE0D2C
:100518002D08823EBD002E080318013EFF3EBE0096
:10052800B22A0130AD000310B90DBA0DBB0DBC0DD8
:10053800AD0B972AB71FA12AA22AA32A3914013082
:10054800AD000310B40DB50DB60DB70DAD0BA52A52
:10055800FF30BD070318BE0AFF30BE07BB1FB52A10
:10056800B62A952AB301B71FBA2ABB2AD72AFF3061
:100578003405AD00FF303505AE00FF303605AF005D
:100588007F303705B00030082F042E042D040319DE
:10059800CE2ACF2AD22AB301B30AD72A391CD52AA0
:1005A800D62AD72ACF2A33080319DB2ADC2A0D2BAF
:1005B8000130B907003003180130BA0700300318BA
:1005C8000130BB07003003180130BC073C1CED2A82
:1005D800EE2A0D2B3908AD003A08AE003B08AF00F3
:1005E8003C08B0000130B100300DB00CAF0CAE0CBF
:1005F800AD0CB10BF82A3008BC002F08BB002E0840
:10060800BA002D08B9000130BD070318BE0A003032
:10061800BE073E08803AFF0080307F02031D162B7C
:10062800FF303D02031C192B1A2B252B7F30831218
:100638000313BC008030BB000030BA000030B900A2
:10064800562B831203133E08803AFF0080307F0246
:10065800031D302B01303D020318332B342B402B64
:10066800003083120313BC000030BB000030BA0016
:100678000030B900B201562B831203133D08B800AD
:10068800FF30B905FF30BA057F30BB050030BC0527
:10069800381C4F2B502B512BBB173808AD000310BB
:1006A8002D0CBC003208FF007F08BC043C08A800E1
:1006B8003B08A7003A08A6003908A50008008312DD
:1006C80003132D088039B7002D08AE002E07BE0091
:1006D800AC1F6F2B702B712B3E143E080319752B22
:1006E800762B862B3E0A031D7A2B7B2B832B00301F
:1006F800AD000030AC000030AB000030AA00AC17F1
:10070800AD018E2B0030AD000030AC000030AB00E6
:100718000030AA0029088039FF007F08B706290899
:10072800AE002E07BF00A81F9A2B9B2B9C2B3F14B3
:100738003F080319A02BA12BB12B3F0A031DA52BA2
:10074800A62BAE2B0030A9000030A8000030A7006F
:100758000030A600A817A901B92B0030A900003065
:10076800A8000030A7000030A600290828042704A4
:100778002604031DC02BC12BDA2B0030AD0000303E
:10078800AC000030AB000030AA008030AC047F30F1
:10079800AD043708FF007F08AD042D08A9002C0818
:1007A800A8002B08A7002A08A600312D3E08031D23
:1007B800DE2BDF2BE82B0030A9000030A80000302A
:1007C800A7000030A600312D3E08AE00AF012F086B
:1007D800B1003F082E02B000031CB10330087F3E71
:1007E800B80031080318013E003EB9002D08B600D4
:1007F8002C08B5002B08B4002A08B3000030AD005F
:100808000030AC000030AB000030AA000030BD0062
:100818000030BC000030BB000030BA00BF015E2CC5
:100828003F080319182C192C392C0130AE0003107D
:10083800B30DB40DB50DB60DAE0B1B2C0130AE00CB
:100848000310AA0DAB0DAC0DAD0DAE0B242CBD1FC6
:100858002E2C2F2C302C2A140130AE000310BA0D88
:10086800BB0DBC0DBD0DAE0B322C29083602031D85
:10087800472C28083502031D472C27083402031D7E
:10088800472C26083302031C4A2C4B2C5A2C3D17A4
:100898002608B3022708031C270FB4022808031CE4
:1008A800280FB5022908031C290FB6020130FF00E2
:1008B8007F08BF071A303F02031C632C642C142CDA
:1008C800360835043404330403196B2C6C2C8B2C38
:1008D8003A148B2C0130AE000310AA0DAB0DAC0DF1
:1008E800AD0DAE0B702CBD1F7A2C7B2C7C2C2A14E2
:1008F8000130AE000310BA0DBB0DBC0DBD0DAE0B23
:100908007E2CFF30B8070318B90AFF30B907AC1FAF
:100918008E2C8F2C6E2CBF01BD1F932C942CB02CC9
:10092800FF303A05AE00FF303B05AF00FF303C0515
:10093800B0007F303D05B100310830042F042E048B
:100948000319A72CA82CAB2CBF01BF0AB02C2A1C5A
:10095800AE2CAF2CB02CA82C3F080319B42CB52C06
:10096800E62C0130AA07003003180130AB0700302D
:1009780003180130AC07003003180130AD072D1CF7
:10098800C62CC72CE62C2A08AE002B08AF002C0872
:10099800B0002D08B1000130B200310DB10CB00C1F
:1009A800AF0CAE0CB20BD12C3108AD003008AC0046
:1009B8002F08AB002E08AA000130B8070318B90A9F
:1009C8000030B9073908803AFF0080307F02031DE4
:1009D800EF2CFF303802031CF22CF32C012DFF30D2
:1009E80083120313B8000030B9000030AD000030A6
:1009F800AC000030AB000030AA00831203133908A2
:100A0800803AFF0080307F02031D0C2D0130380230
:100A180003180F2D102D1D2D83120313B801B901D2
:100A28000030AD000030AC000030AB000030AA0050
:100A3800B701831203133808BE003E1C242D252D50
:100A4800272DAC172B2D7F30FF007F08AC053E0803
:100A5800AE0003102E0CAD00CD2B08008B170B1722
:100A6800831603130C174130831203139F008E3033
:100A7800831603139F00061086100611870188014C
:100A880083120313880187010A128A15A5260A1200
:100A98008A1182300A128A1565260A128A110D30C7
:100AA800F50001300A128A15BE260A128A1183122D
:100AB80003131F0804389F004030A9000230A80023
:100AC800F130A700AA30A6005208F2005308F3003C
:100AD800F401F50100300A128A1176260A128A11E9
:100AE800750883120313AD007408AC007308AB00DB
:100AF8007208AA000A128A1163230A128A11831241
:100B080003132908C7002808C6002708C5002608B7
:100B1800C4004230A800C830A7000030A60000304A
:100B2800A5004708AC004608AB004508AA004408E1
:100B3800A9000A128A111E200A128A1183120313AD
:100B48002808C3002708C2002608C1002508C000DD
:100B58000A30A2000030A3004308F5004208F40060
:100B68004108F3004008F2000A128A1130270A12DD
:100B78008A11730883120313A5007208A4000A12CD
:100B88008A153C270A128A11831203132308D100FD
:100B98002208D0000A30A2000030A3004308F50064
:100BA8004208F4004108F3004008F2000A128A11D2
:100BB80030270A128A11730883120313A5007208DA
:100BC800A4000A128A1597270A128A11831203139E
:100BD8002308FB002208FA000A30F2000030F30074
:100BE8007B08F5007A08F4000A128A1502270A120F
:100BF8008A11730883120313CF007208CE000A30DB
:100C0800F2000030F3007B08F5007A08F4000A12BD
:100C18008A11A8270A128A11730883120313CD00B8
:100C28007208CC000A30F2000030F3004D08F500DD
:100C38004C08F4000A128A1502270A128A1173084E
:100C480083120313CB007208CA000A30F200003086
:100C5800F3004D08F5004C08F4000A128A11A82781
:100C68000A128A11730883120313C9007208C80094
:100C7800C5300A128A1565260A128A1183120313CF
:100C88004808303E0A128A157A260A128A118312F7
:100C980003134A08303E0A128A157A260A128A1164
:100CA8002C300A128A157A260A128A118312031323
:100CB8004E08303E0A128A157A260A128A118312C1
:100CC80003135008303E0A128A157A260A128A112E
:100CD80043300A128A157A260A128A115B2D0A12E3
:100CE8008A110C2883120313A000200803197D2EF3
:100CF8007E2E922EF51F812E822E922E7209A20030
:100D08007309A3007409A4007509A500A20A0319B0
:100D1800A30A0319A40A0319A50A9A2E7508A5009F
:100D28007408A4007308A3007208A200750874046C
:100D380073047204031DA12EA22EAB2E0030F50001
:100D48000030F4000030F3000030F2002F2F96300E
:100D5800A100BB2E0130FF007F08A107013003105E
:100D6800A50CA40CA30CA20CFF3E031DB32EFE3051
:100D78002505031DC02EC12EAE2EDD2E0130FF002D
:100D88007F08A1070130A207003003180130A3072C
:100D9800003003180130A407003003180130A507FC
:100DA80001300310A50CA40CA30CA20CFF3E031DDC
:100DB800D52EFF302505031DE22EE32EC22EEF2E81
:100DC8000130A1020130F6000310A20DA30DA40DFD
:100DD800A50DF60BE82EA41BF22EF32EF92E0230E9
:100DE80021020318F82EF92EE42E2118FC2EFD2ED0
:100DF800052FFF30A205FF30A3057F30A405FF3083
:100E0800A5050310A10C2108F600F701F801F90166
:100E180018300310F60DF70DF80DF90DFF3E031D00
:100E28000D2F7608A2047708A3047808A40479088B
:100E3800A50420080319212F222F272FF51F252F5E
:100E4800262F272FA5172508F5002408F4002308C6
:100E5800F3002208F20008000310740D750D8312C8
:100E68000313A1002108031D3A2F3B2F442F003004
:100E7800F5000030F4000030F3000030F200A72F36
:100E88007208F6007308F7007408F8007508F9008E
:100E98001F300310F90CF80CF70CF60CFF3E031D7D
:100EA8004D2F7608A000F417FF30F205FF30F30548
:100EB800FF30F4050030F5059630A102A11F652F1B
:100EC800662F802F2108803A973E03186C2F6D2FCC
:100ED8006E2F3B2F01300310F50CF40CF30CF20CC1
:100EE800FF3E031D6F2F0130FF007F08A107031D80
:100EF8007E2F7F2F6E2F972F20302102031C852FE6
:100F0800862F922F3B2F0130F6000310F20DF30DC0
:100F1800F40DF50DF60B892F0130A1022108031DF0
:100F2800962F972F872F200803199B2F9C2FA72FC9
:100F3800F209F309F409F509F20A0319F30A031986
:100F4800F40A0319F50A0800F601F7017208730498
:100F58000319AF2FB02FE72FF801F80ABE2F013081
:100F68000310F20DF30DFF3E031DB42F0130FF00F7
:100F78007F08F807F31FC12FC22FB32F01300310CA
:100F8800F60DF70DFF3E031DC32F73087502031DF1
:100F9800CF2F72087402031CD22FD32FDA2F7208B6
:100FA800F4027308031CF503F502761401300310EC
:100FB800F30CF20CFF3E031DDB2F0130F802031D7A
:100FC800E62FE72FC22F7708F3007608F200080013
:100FD80007308A000408840A8207003454346534D0
:100FE8006D347034653472346134743475347234E9
:080FF80065343A342034003462
:101CBA0064008001840A04060319003404065E2EB7
:101CCA00F4008312031306150610861074088800A0
:101CDA002130F3007630F200F20B712EF30B712EE5
:101CEA0000008312031306110800F4008312031381
:101CFA00061506148610740888002130F300763021
:101D0A00F200F20B862EF30B862E000083120313C9
:101D1A0006110800831203130C1F942E952E9E2E73
:101D2A001E08D300831603131E0883120313D2005E
:101D3A000C1371088A00700E8300FE0E7E0E0900D5
:101D4A0038300A128A1565260A128A1506300A12CE
:101D5A008A1565260A128A150C300A128A15652612
:101D6A000A128A1501300A128A1565260A128A157C
:101D7A000800F600F701D22E7708760784000A12C7
:101D8A008A11EC270A128A150A128A157A260A1269
:101D9A008A150130FF007F08F70775087702031CD0
:101DAA00D72ED82EC12E080083120313A400A00137
:101DBA00A1017208F400F5017408A2007508A300D5
:101DCA00241CE82EE92EEF2E2208A0070318A10AE8
:101DDA002308A10701300310A20DA30DFF3E031D26
:101DEA00F02E0310A40C2408031DFC2EFD2EE52E54
:101DFA002108F3002008F20008007208730403198E
:101E0A00072F082F372FF601F60A162F0130031075
:101E1A00F20DF30DFF3E031D0C2F0130FF007F086A
:101E2A00F607F31F192F1A2F0B2F73087502031DBC
:101E3A00202F72087402031C232F242F2A2F7208C2
:101E4A00F4027308031CF503F50201300310F30CC6
:101E5A00F20CFF3E031D2B2F0130F602031D362F15
:101E6A00372F1A2F7508F3007408F200080083123E
:101E7A000313A701A51F422F432F4A2FA409A5091F
:101E8A00A40A0319A50AA701A70AA31F4D2F4E2FBB
:101E9A00532FA209A309A20A0319A30A2208230499
:101EAA000319582F592F882FA601A60A672F013028
:101EBA000310A20DA30DFF3E031D5D2F0130FF008D
:101ECA007F08A607A31F6A2F6B2F5C2F2308250202
:101EDA00031D712F22082402031C742F752F7B2FD8
:101EEA002208A4022308031CA503A502013003103B
:101EFA00A30CA20CFF3E031D7C2F0130A602031D7A
:101F0A00872F882F6B2F270803198C2F8D2F922F3D
:101F1A00A409A509A40A0319A50A2508A3002408E7
:101F2A00A200080083120313A701A31F9D2F9E2F4F
:101F3A00A52FA209A309A20A0319A30AA701A70A9E
:101F4A00A51FA82FA92FB22FA409A509A40A03190E
:101F5A00A50A0130FF007F08A706A801A9012208E7
:101F6A0023040319B92FBA2FF12FA601A60AC82FE5
:101F7A0001300310A20DA30DFF3E031DBE2F013039
:101F8A00FF007F08A607A31FCB2FCC2FBD2F013040
:101F9A000310A80DA90DFF3E031DCD2F230825020E
:101FAA00031DD92F22082402031CDC2FDD2FE42F66
:101FBA002208A4022308031CA503A5022814013041
:101FCA000310A30CA20CFF3E031DE52F0130A6024D
:101FDA00031DF02FF12FCC2F27080319F52FF62F09
:101FEA00FB2FA809A909A80A0319A90A2908A30005
:061FFA002808A200080007
:02400E00BA3FB7
:00000001FF
