:100000000A128A11FC2F00308A000408840A820731
:10001000003434345834333420344B344534593478
:100020005034413444343A3400343334363439347F
:10003000233400343134343437342A340034323405
:0800400035343834303400344B
:100DE000F20083120313871787160713720888000F
:100DF0002130F1007630F000F00BFC2EF10BFC2ED0
:100E000000008312031387130800F20083120313F8
:100E1000871787120713720888002130F100763097
:100E2000F000F00B112FF10B112F000083120313B0
:100E30008713080038300A128A1105270A128A110E
:100E400006300A128A1105270A128A110C300A127A
:100E50008A1105270A128A1101300A128A11052700
:100E60000A128A110800F400F501472F750874076B
:100E700084000A128A1103200A128A110A128A11A6
:100E8000F0260A128A110130FF007F08F507730867
:100E90007502031C4C2F4D2F362F080083120313AD
:100EA00006158610061012300A128A119A270A12A5
:100EB0008A118312031306118614061017300A12C2
:100EC0008A119A270A128A118312031306118610B7
:100ED00006140D300A128A119A270A128A11080084
:100EE000F0308316031386008712071387138801D7
:100EF0000A128A111A270A128A1183300A128A11D9
:100F000005270A128A110B30F30001300A128A11E8
:100F100033270A128A11C0300A128A1105270A12D1
:100F20008A110A128A114E270A128A11912F0A1267
:100F30008A110028F30083120313061EA02FA12F8D
:100F4000B42F730884000A128A1103200A128A112E
:100F50000A128A11F0260A128A1183120313061A42
:100F6000B22FB32FAD2FFB2F861EB72FB82FCC2F4C
:100F70007308013E84000A128A1103200A128A11A2
:100F80000A128A11F0260A128A1183120313861A92
:100F9000CA2FCB2FC52FFB2F061FCF2FD02FE42F0B
:100FA0007308023E84000A128A1103200A128A1171
:100FB0000A128A11F0260A128A1183120313061BE1
:100FC000E22FE32FDD2FFB2F861FE72FE82FFB2FCC
:100FD0007308033E84000A128A1103200A128A1140
:100FE0000A128A11F0260A128A1183120313861B31
:100FF000FA2FFB2FF52F080083010A128A11702F98
:02400E00BA3FB7
:00000001FF
